{
  "_format": "hh-sol-artifact-1",
  "contractName": "DocumentMarketplace",
  "sourceName": "contracts/DocumentMarketplace.sol",
  "abi": [
    {
      "inputs": [
        {
          "internalType": "address",
          "name": "tokenAddress",
          "type": "address"
        }
      ],
      "stateMutability": "nonpayable",
      "type": "constructor"
    },
    {
      "inputs": [],
      "name": "ReentrancyGuardReentrantCall",
      "type": "error"
    },
    {
      "inputs": [
        {
          "internalType": "uint256",
          "name": "id",
          "type": "uint256"
        }
      ],
      "name": "buyDocument",
      "outputs": [],
      "stateMutability": "nonpayable",
      "type": "function"
    },
    {
      "inputs": [],
      "name": "documentCount",
      "outputs": [
        {
          "internalType": "uint256",
          "name": "",
          "type": "uint256"
        }
      ],
      "stateMutability": "view",
      "type": "function"
    },
    {
      "inputs": [
        {
          "internalType": "uint256",
          "name": "",
          "type": "uint256"
        }
      ],
      "name": "documents",
      "outputs": [
        {
          "internalType": "uint256",
          "name": "id",
          "type": "uint256"
        },
        {
          "internalType": "string",
          "name": "title",
          "type": "string"
        },
        {
          "internalType": "string",
          "name": "description",
          "type": "string"
        },
        {
          "internalType": "uint256",
          "name": "price",
          "type": "uint256"
        },
        {
          "internalType": "string",
          "name": "ipfsHash",
          "type": "string"
        },
        {
          "internalType": "address",
          "name": "author",
          "type": "address"
        }
      ],
      "stateMutability": "view",
      "type": "function"
    },
    {
      "inputs": [],
      "name": "getAllDocuments",
      "outputs": [
        {
          "components": [
            {
              "internalType": "uint256",
              "name": "id",
              "type": "uint256"
            },
            {
              "internalType": "string",
              "name": "title",
              "type": "string"
            },
            {
              "internalType": "string",
              "name": "description",
              "type": "string"
            },
            {
              "internalType": "uint256",
              "name": "price",
              "type": "uint256"
            },
            {
              "internalType": "string",
              "name": "ipfsHash",
              "type": "string"
            },
            {
              "internalType": "address",
              "name": "author",
              "type": "address"
            }
          ],
          "internalType": "struct DocumentMarketplace.Document[]",
          "name": "",
          "type": "tuple[]"
        }
      ],
      "stateMutability": "view",
      "type": "function"
    },
    {
      "inputs": [],
      "name": "token",
      "outputs": [
        {
          "internalType": "contract StudyToken",
          "name": "",
          "type": "address"
        }
      ],
      "stateMutability": "view",
      "type": "function"
    },
    {
      "inputs": [
        {
          "internalType": "string",
          "name": "title",
          "type": "string"
        },
        {
          "internalType": "string",
          "name": "description",
          "type": "string"
        },
        {
          "internalType": "uint256",
          "name": "price",
          "type": "uint256"
        },
        {
          "internalType": "string",
          "name": "ipfsHash",
          "type": "string"
        }
      ],
      "name": "uploadDocument",
      "outputs": [],
      "stateMutability": "nonpayable",
      "type": "function"
    }
  ],
  "bytecode": "0x60806040523480156200001157600080fd5b506040516200186038038062001860833981810160405281019062000037919062000146565b6001620000596200004d620000a760201b60201c565b620000d260201b60201c565b60000181905550806000806101000a81548173ffffffffffffffffffffffffffffffffffffffff021916908373ffffffffffffffffffffffffffffffffffffffff1602179055505062000178565b60007f9b779b17422d0df92223018b32b4d1fa46e071723d6817e2486d003becc55f0060001b905090565b6000819050919050565b600080fd5b600073ffffffffffffffffffffffffffffffffffffffff82169050919050565b60006200010e82620000e1565b9050919050565b620001208162000101565b81146200012c57600080fd5b50565b600081519050620001408162000115565b92915050565b6000602082840312156200015f576200015e620000dc565b5b60006200016f848285016200012f565b91505092915050565b6116d880620001886000396000f3fe608060405234801561001057600080fd5b50600436106100625760003560e01c80634c58b7a9146100675780639fa5f50b14610083578063a5b16b2e146100a1578063c2ed2b05146100bf578063f002bbdf146100f4578063fc0c546a14610110575b600080fd5b610081600480360381019061007c9190610d47565b61012e565b005b61008b610246565b604051610098919061102a565b60405180910390f35b6100a9610535565b6040516100b6919061105b565b60405180910390f35b6100d960048036038101906100d49190611076565b61053b565b6040516100eb969594939291906110fc565b60405180910390f35b61010e60048036038101906101099190611076565b61072f565b005b610118610a75565b60405161012591906111d1565b60405180910390f35b600160008154809291906101419061121b565b91905055506040518060c0016040528060015481526020018581526020018481526020018381526020018281526020013373ffffffffffffffffffffffffffffffffffffffff168152506002600060015481526020019081526020016000206000820151816000015560208201518160010190816101bf9190611465565b5060408201518160020190816101d59190611465565b506060820151816003015560808201518160040190816101f59190611465565b5060a08201518160050160006101000a81548173ffffffffffffffffffffffffffffffffffffffff021916908373ffffffffffffffffffffffffffffffffffffffff16021790555090505050505050565b6060600060015467ffffffffffffffff81111561026657610265610be6565b5b60405190808252806020026020018201604052801561029f57816020015b61028c610b6b565b8152602001906001900390816102845790505b5090506000600190505b600154811161052d57600260008281526020019081526020016000206040518060c0016040529081600082015481526020016001820180546102ea90611292565b80601f016020809104026020016040519081016040528092919081815260200182805461031690611292565b80156103635780601f1061033857610100808354040283529160200191610363565b820191906000526020600020905b81548152906001019060200180831161034657829003601f168201915b5050505050815260200160028201805461037c90611292565b80601f01602080910402602001604051908101604052809291908181526020018280546103a890611292565b80156103f55780601f106103ca576101008083540402835291602001916103f5565b820191906000526020600020905b8154815290600101906020018083116103d857829003601f168201915b505050505081526020016003820154815260200160048201805461041890611292565b80601f016020809104026020016040519081016040528092919081815260200182805461044490611292565b80156104915780601f1061046657610100808354040283529160200191610491565b820191906000526020600020905b81548152906001019060200180831161047457829003601f168201915b505050505081526020016005820160009054906101000a900473ffffffffffffffffffffffffffffffffffffffff1673ffffffffffffffffffffffffffffffffffffffff1673ffffffffffffffffffffffffffffffffffffffff1681525050826001836104fe9190611537565b8151811061050f5761050e61156b565b5b602002602001018190525080806105259061121b565b9150506102a9565b508091505090565b60015481565b600260205280600052604060002060009150905080600001549080600101805461056490611292565b80601f016020809104026020016040519081016040528092919081815260200182805461059090611292565b80156105dd5780601f106105b2576101008083540402835291602001916105dd565b820191906000526020600020905b8154815290600101906020018083116105c057829003601f168201915b5050505050908060020180546105f290611292565b80601f016020809104026020016040519081016040528092919081815260200182805461061e90611292565b801561066b5780601f106106405761010080835404028352916020019161066b565b820191906000526020600020905b81548152906001019060200180831161064e57829003601f168201915b50505050509080600301549080600401805461068690611292565b80601f01602080910402602001604051908101604052809291908181526020018280546106b290611292565b80156106ff5780601f106106d4576101008083540402835291602001916106ff565b820191906000526020600020905b8154815290600101906020018083116106e257829003601f168201915b5050505050908060050160009054906101000a900473ffffffffffffffffffffffffffffffffffffffff16905086565b610737610a99565b6000600260008381526020019081526020016000206040518060c00160405290816000820154815260200160018201805461077190611292565b80601f016020809104026020016040519081016040528092919081815260200182805461079d90611292565b80156107ea5780601f106107bf576101008083540402835291602001916107ea565b820191906000526020600020905b8154815290600101906020018083116107cd57829003601f168201915b5050505050815260200160028201805461080390611292565b80601f016020809104026020016040519081016040528092919081815260200182805461082f90611292565b801561087c5780601f106108515761010080835404028352916020019161087c565b820191906000526020600020905b81548152906001019060200180831161085f57829003601f168201915b505050505081526020016003820154815260200160048201805461089f90611292565b80601f01602080910402602001604051908101604052809291908181526020018280546108cb90611292565b80156109185780601f106108ed57610100808354040283529160200191610918565b820191906000526020600020905b8154815290600101906020018083116108fb57829003601f168201915b505050505081526020016005820160009054906101000a900473ffffffffffffffffffffffffffffffffffffffff1673ffffffffffffffffffffffffffffffffffffffff1673ffffffffffffffffffffffffffffffffffffffff1681525050905060008160000151116109c0576040517f08c379a00000000000000000000000000000000000000000000000000000000081526004016109b7906115e6565b60405180910390fd5b60008054906101000a900473ffffffffffffffffffffffffffffffffffffffff1673ffffffffffffffffffffffffffffffffffffffff166323b872dd338360a0015184606001516040518463ffffffff1660e01b8152600401610a2593929190611606565b6020604051808303816000875af1158015610a44573d6000803e3d6000fd5b505050506040513d601f19601f82011682018060405250810190610a689190611675565b5050610a72610abc565b50565b60008054906101000a900473ffffffffffffffffffffffffffffffffffffffff1681565b610aa1610ad7565b6002610ab3610aae610b18565b610b43565b60000181905550565b6001610ace610ac9610b18565b610b43565b60000181905550565b610adf610b4d565b15610b16576040517f3ee5aeb500000000000000000000000000000000000000000000000000000000815260040160405180910390fd5b565b60007f9b779b17422d0df92223018b32b4d1fa46e071723d6817e2486d003becc55f0060001b905090565b6000819050919050565b60006002610b61610b5c610b18565b610b43565b6000015414905090565b6040518060c001604052806000815260200160608152602001606081526020016000815260200160608152602001600073ffffffffffffffffffffffffffffffffffffffff1681525090565b6000604051905090565b600080fd5b600080fd5b600080fd5b600080fd5b6000601f19601f8301169050919050565b7f4e487b7100000000000000000000000000000000000000000000000000000000600052604160045260246000fd5b610c1e82610bd5565b810181811067ffffffffffffffff82111715610c3d57610c3c610be6565b5b80604052505050565b6000610c50610bb7565b9050610c5c8282610c15565b919050565b600067ffffffffffffffff821115610c7c57610c7b610be6565b5b610c8582610bd5565b9050602081019050919050565b82818337600083830152505050565b6000610cb4610caf84610c61565b610c46565b905082815260208101848484011115610cd057610ccf610bd0565b5b610cdb848285610c92565b509392505050565b600082601f830112610cf857610cf7610bcb565b5b8135610d08848260208601610ca1565b91505092915050565b6000819050919050565b610d2481610d11565b8114610d2f57600080fd5b50565b600081359050610d4181610d1b565b92915050565b60008060008060808587031215610d6157610d60610bc1565b5b600085013567ffffffffffffffff811115610d7f57610d7e610bc6565b5b610d8b87828801610ce3565b945050602085013567ffffffffffffffff811115610dac57610dab610bc6565b5b610db887828801610ce3565b9350506040610dc987828801610d32565b925050606085013567ffffffffffffffff811115610dea57610de9610bc6565b5b610df687828801610ce3565b91505092959194509250565b600081519050919050565b600082825260208201905092915050565b6000819050602082019050919050565b610e3781610d11565b82525050565b600081519050919050565b600082825260208201905092915050565b60005b83811015610e77578082015181840152602081019050610e5c565b60008484015250505050565b6000610e8e82610e3d565b610e988185610e48565b9350610ea8818560208601610e59565b610eb181610bd5565b840191505092915050565b600073ffffffffffffffffffffffffffffffffffffffff82169050919050565b6000610ee782610ebc565b9050919050565b610ef781610edc565b82525050565b600060c083016000830151610f156000860182610e2e565b5060208301518482036020860152610f2d8282610e83565b91505060408301518482036040860152610f478282610e83565b9150506060830151610f5c6060860182610e2e565b5060808301518482036080860152610f748282610e83565b91505060a0830151610f8960a0860182610eee565b508091505092915050565b6000610fa08383610efd565b905092915050565b6000602082019050919050565b6000610fc082610e02565b610fca8185610e0d565b935083602082028501610fdc85610e1e565b8060005b858110156110185784840389528151610ff98582610f94565b945061100483610fa8565b925060208a01995050600181019050610fe0565b50829750879550505050505092915050565b600060208201905081810360008301526110448184610fb5565b905092915050565b61105581610d11565b82525050565b6000602082019050611070600083018461104c565b92915050565b60006020828403121561108c5761108b610bc1565b5b600061109a84828501610d32565b91505092915050565b600082825260208201905092915050565b60006110bf82610e3d565b6110c981856110a3565b93506110d9818560208601610e59565b6110e281610bd5565b840191505092915050565b6110f681610edc565b82525050565b600060c082019050611111600083018961104c565b818103602083015261112381886110b4565b9050818103604083015261113781876110b4565b9050611146606083018661104c565b818103608083015261115881856110b4565b905061116760a08301846110ed565b979650505050505050565b6000819050919050565b600061119761119261118d84610ebc565b611172565b610ebc565b9050919050565b60006111a98261117c565b9050919050565b60006111bb8261119e565b9050919050565b6111cb816111b0565b82525050565b60006020820190506111e660008301846111c2565b92915050565b7f4e487b7100000000000000000000000000000000000000000000000000000000600052601160045260246000fd5b600061122682610d11565b91507fffffffffffffffffffffffffffffffffffffffffffffffffffffffffffffffff8203611258576112576111ec565b5b600182019050919050565b7f4e487b7100000000000000000000000000000000000000000000000000000000600052602260045260246000fd5b600060028204905060018216806112aa57607f821691505b6020821081036112bd576112bc611263565b5b50919050565b60008190508160005260206000209050919050565b60006020601f8301049050919050565b600082821b905092915050565b6000600883026113257fffffffffffffffffffffffffffffffffffffffffffffffffffffffffffffffff826112e8565b61132f86836112e8565b95508019841693508086168417925050509392505050565b600061136261135d61135884610d11565b611172565b610d11565b9050919050565b6000819050919050565b61137c83611347565b61139061138882611369565b8484546112f5565b825550505050565b600090565b6113a5611398565b6113b0818484611373565b505050565b5b818110156113d4576113c960008261139d565b6001810190506113b6565b5050565b601f821115611419576113ea816112c3565b6113f3846112d8565b81016020851015611402578190505b61141661140e856112d8565b8301826113b5565b50505b505050565b600082821c905092915050565b600061143c6000198460080261141e565b1980831691505092915050565b6000611455838361142b565b9150826002028217905092915050565b61146e82610e3d565b67ffffffffffffffff81111561148757611486610be6565b5b6114918254611292565b61149c8282856113d8565b600060209050601f8311600181146114cf57600084156114bd578287015190505b6114c78582611449565b86555061152f565b601f1984166114dd866112c3565b60005b82811015611505578489015182556001820191506020850194506020810190506114e0565b86831015611522578489015161151e601f89168261142b565b8355505b6001600288020188555050505b505050505050565b600061154282610d11565b915061154d83610d11565b9250828203905081811115611565576115646111ec565b5b92915050565b7f4e487b7100000000000000000000000000000000000000000000000000000000600052603260045260246000fd5b7f496e76616c696420646f63756d656e7400000000000000000000000000000000600082015250565b60006115d06010836110a3565b91506115db8261159a565b602082019050919050565b600060208201905081810360008301526115ff816115c3565b9050919050565b600060608201905061161b60008301866110ed565b61162860208301856110ed565b611635604083018461104c565b949350505050565b60008115159050919050565b6116528161163d565b811461165d57600080fd5b50565b60008151905061166f81611649565b92915050565b60006020828403121561168b5761168a610bc1565b5b600061169984828501611660565b9150509291505056fea26469706673582212202f75c0a6b6b2637560f354537ecc0a718990a36694680fc5e897488be02b9ccd64736f6c63430008140033",
  "linkReferences": {},
  "deployedLinkReferences": {}
}