{
  "_format": "hh-sol-artifact-1",
  "contractName": "ICO",
  "sourceName": "contracts/ICO.sol",
  "abi": [
    {
      "inputs": [
        {
          "internalType": "address",
          "name": "tokenAddress",
          "type": "address"
        }
      ],
      "stateMutability": "nonpayable",
      "type": "constructor"
    },
    {
      "inputs": [
        {
          "internalType": "address",
          "name": "owner",
          "type": "address"
        }
      ],
      "name": "OwnableInvalidOwner",
      "type": "error"
    },
    {
      "inputs": [
        {
          "internalType": "address",
          "name": "account",
          "type": "address"
        }
      ],
      "name": "OwnableUnauthorizedAccount",
      "type": "error"
    },
    {
      "anonymous": false,
      "inputs": [
        {
          "indexed": true,
          "internalType": "address",
          "name": "previousOwner",
          "type": "address"
        },
        {
          "indexed": true,
          "internalType": "address",
          "name": "newOwner",
          "type": "address"
        }
      ],
      "name": "OwnershipTransferred",
      "type": "event"
    },
    {
      "anonymous": false,
      "inputs": [
        {
          "indexed": false,
          "internalType": "address",
          "name": "buyer",
          "type": "address"
        },
        {
          "indexed": false,
          "internalType": "uint256",
          "name": "amount",
          "type": "uint256"
        }
      ],
      "name": "TokenPurchased",
      "type": "event"
    },
    {
      "inputs": [],
      "name": "buyTokens",
      "outputs": [],
      "stateMutability": "payable",
      "type": "function"
    },
    {
      "inputs": [],
      "name": "endICO",
      "outputs": [],
      "stateMutability": "nonpayable",
      "type": "function"
    },
    {
      "inputs": [],
      "name": "icoActive",
      "outputs": [
        {
          "internalType": "bool",
          "name": "",
          "type": "bool"
        }
      ],
      "stateMutability": "view",
      "type": "function"
    },
    {
      "inputs": [],
      "name": "owner",
      "outputs": [
        {
          "internalType": "address",
          "name": "",
          "type": "address"
        }
      ],
      "stateMutability": "view",
      "type": "function"
    },
    {
      "inputs": [],
      "name": "rate",
      "outputs": [
        {
          "internalType": "uint256",
          "name": "",
          "type": "uint256"
        }
      ],
      "stateMutability": "view",
      "type": "function"
    },
    {
      "inputs": [],
      "name": "renounceOwnership",
      "outputs": [],
      "stateMutability": "nonpayable",
      "type": "function"
    },
    {
      "inputs": [],
      "name": "token",
      "outputs": [
        {
          "internalType": "contract StudyToken",
          "name": "",
          "type": "address"
        }
      ],
      "stateMutability": "view",
      "type": "function"
    },
    {
      "inputs": [
        {
          "internalType": "address",
          "name": "newOwner",
          "type": "address"
        }
      ],
      "name": "transferOwnership",
      "outputs": [],
      "stateMutability": "nonpayable",
      "type": "function"
    },
    {
      "inputs": [],
      "name": "withdrawETH",
      "outputs": [],
      "stateMutability": "nonpayable",
      "type": "function"
    }
  ],
  "bytecode": "0x60806040526103e86002556001600360006101000a81548160ff02191690831515021790555034801561003157600080fd5b5060405162000c5f38038062000c5f83398181016040528101906100559190610246565b33600073ffffffffffffffffffffffffffffffffffffffff168173ffffffffffffffffffffffffffffffffffffffff16036100c85760006040517f1e4fbdf70000000000000000000000000000000000000000000000000000000081526004016100bf9190610282565b60405180910390fd5b6100d78161011f60201b60201c565b5080600160006101000a81548173ffffffffffffffffffffffffffffffffffffffff021916908373ffffffffffffffffffffffffffffffffffffffff1602179055505061029d565b60008060009054906101000a900473ffffffffffffffffffffffffffffffffffffffff169050816000806101000a81548173ffffffffffffffffffffffffffffffffffffffff021916908373ffffffffffffffffffffffffffffffffffffffff1602179055508173ffffffffffffffffffffffffffffffffffffffff168173ffffffffffffffffffffffffffffffffffffffff167f8be0079c531659141344cd1fd0a4f28419497f9722a3daafe3b4186f6b6457e060405160405180910390a35050565b600080fd5b600073ffffffffffffffffffffffffffffffffffffffff82169050919050565b6000610213826101e8565b9050919050565b61022381610208565b811461022e57600080fd5b50565b6000815190506102408161021a565b92915050565b60006020828403121561025c5761025b6101e3565b5b600061026a84828501610231565b91505092915050565b61027c81610208565b82525050565b60006020820190506102976000830184610273565b92915050565b6109b280620002ad6000396000f3fe6080604052600436106100865760003560e01c80638da5cb5b116100595780638da5cb5b1461010f578063d0febe4c1461013a578063e086e5ec14610144578063f2fde38b1461015b578063fc0c546a1461018457610086565b80632aa073c51461008b5780632c4e722e146100b65780634f248409146100e1578063715018a6146100f8575b600080fd5b34801561009757600080fd5b506100a06101af565b6040516100ad919061061d565b60405180910390f35b3480156100c257600080fd5b506100cb6101c2565b6040516100d89190610651565b60405180910390f35b3480156100ed57600080fd5b506100f66101c8565b005b34801561010457600080fd5b5061010d6101ed565b005b34801561011b57600080fd5b50610124610201565b60405161013191906106ad565b60405180910390f35b61014261022a565b005b34801561015057600080fd5b506101596103ab565b005b34801561016757600080fd5b50610182600480360381019061017d91906106f9565b610403565b005b34801561019057600080fd5b50610199610489565b6040516101a69190610785565b60405180910390f35b600360009054906101000a900460ff1681565b60025481565b6101d06104af565b6000600360006101000a81548160ff021916908315150217905550565b6101f56104af565b6101ff6000610536565b565b60008060009054906101000a900473ffffffffffffffffffffffffffffffffffffffff16905090565b600360009054906101000a900460ff16610279576040517f08c379a0000000000000000000000000000000000000000000000000000000008152600401610270906107fd565b60405180910390fd5b600034116102bc576040517f08c379a00000000000000000000000000000000000000000000000000000000081526004016102b390610869565b60405180910390fd5b6000600254346102cc91906108b8565b9050600160009054906101000a900473ffffffffffffffffffffffffffffffffffffffff1673ffffffffffffffffffffffffffffffffffffffff1663a9059cbb33836040518363ffffffff1660e01b815260040161032b9291906108fa565b6020604051808303816000875af115801561034a573d6000803e3d6000fd5b505050506040513d601f19601f8201168201806040525081019061036e919061094f565b507f55c18555197c6574627cf460c66073d10aa05d412468800b7b71feeaf82ea92d33826040516103a09291906108fa565b60405180910390a150565b6103b36104af565b6103bb610201565b73ffffffffffffffffffffffffffffffffffffffff166108fc479081150290604051600060405180830381858888f19350505050158015610400573d6000803e3d6000fd5b50565b61040b6104af565b600073ffffffffffffffffffffffffffffffffffffffff168173ffffffffffffffffffffffffffffffffffffffff160361047d5760006040517f1e4fbdf700000000000000000000000000000000000000000000000000000000815260040161047491906106ad565b60405180910390fd5b61048681610536565b50565b600160009054906101000a900473ffffffffffffffffffffffffffffffffffffffff1681565b6104b76105fa565b73ffffffffffffffffffffffffffffffffffffffff166104d5610201565b73ffffffffffffffffffffffffffffffffffffffff1614610534576104f86105fa565b6040517f118cdaa700000000000000000000000000000000000000000000000000000000815260040161052b91906106ad565b60405180910390fd5b565b60008060009054906101000a900473ffffffffffffffffffffffffffffffffffffffff169050816000806101000a81548173ffffffffffffffffffffffffffffffffffffffff021916908373ffffffffffffffffffffffffffffffffffffffff1602179055508173ffffffffffffffffffffffffffffffffffffffff168173ffffffffffffffffffffffffffffffffffffffff167f8be0079c531659141344cd1fd0a4f28419497f9722a3daafe3b4186f6b6457e060405160405180910390a35050565b600033905090565b60008115159050919050565b61061781610602565b82525050565b6000602082019050610632600083018461060e565b92915050565b6000819050919050565b61064b81610638565b82525050565b60006020820190506106666000830184610642565b92915050565b600073ffffffffffffffffffffffffffffffffffffffff82169050919050565b60006106978261066c565b9050919050565b6106a78161068c565b82525050565b60006020820190506106c2600083018461069e565b92915050565b600080fd5b6106d68161068c565b81146106e157600080fd5b50565b6000813590506106f3816106cd565b92915050565b60006020828403121561070f5761070e6106c8565b5b600061071d848285016106e4565b91505092915050565b6000819050919050565b600061074b6107466107418461066c565b610726565b61066c565b9050919050565b600061075d82610730565b9050919050565b600061076f82610752565b9050919050565b61077f81610764565b82525050565b600060208201905061079a6000830184610776565b92915050565b600082825260208201905092915050565b7f49434f20656e6465640000000000000000000000000000000000000000000000600082015250565b60006107e76009836107a0565b91506107f2826107b1565b602082019050919050565b60006020820190508181036000830152610816816107da565b9050919050565b7f53656e6420455448000000000000000000000000000000000000000000000000600082015250565b60006108536008836107a0565b915061085e8261081d565b602082019050919050565b6000602082019050818103600083015261088281610846565b9050919050565b7f4e487b7100000000000000000000000000000000000000000000000000000000600052601160045260246000fd5b60006108c382610638565b91506108ce83610638565b92508282026108dc81610638565b915082820484148315176108f3576108f2610889565b5b5092915050565b600060408201905061090f600083018561069e565b61091c6020830184610642565b9392505050565b61092c81610602565b811461093757600080fd5b50565b60008151905061094981610923565b92915050565b600060208284031215610965576109646106c8565b5b60006109738482850161093a565b9150509291505056fea264697066735822122051e070e3fd22db89fdb83c48c94d372ef78456ac9ef850a0db3769b691ee27dc64736f6c63430008140033",
  "linkReferences": {},
  "deployedLinkReferences": {}
}